{
  "_format": "hh-sol-artifact-1",
  "contractName": "Lottery",
  "sourceName": "contracts/Lottery.sol",
  "abi": [
    {
      "inputs": [],
      "stateMutability": "nonpayable",
      "type": "constructor"
    },
    {
      "inputs": [],
      "name": "enter",
      "outputs": [],
      "stateMutability": "payable",
      "type": "function"
    },
    {
      "inputs": [],
      "name": "getBalance",
      "outputs": [
        {
          "internalType": "uint256",
          "name": "",
          "type": "uint256"
        }
      ],
      "stateMutability": "view",
      "type": "function"
    },
    {
      "inputs": [],
      "name": "getLotteryId",
      "outputs": [
        {
          "internalType": "uint256",
          "name": "",
          "type": "uint256"
        }
      ],
      "stateMutability": "view",
      "type": "function"
    },
    {
      "inputs": [],
      "name": "getPlayers",
      "outputs": [
        {
          "internalType": "address payable[]",
          "name": "",
          "type": "address[]"
        }
      ],
      "stateMutability": "view",
      "type": "function"
    },
    {
      "inputs": [],
      "name": "getRandomNumber",
      "outputs": [
        {
          "internalType": "uint256",
          "name": "",
          "type": "uint256"
        }
      ],
      "stateMutability": "view",
      "type": "function"
    },
    {
      "inputs": [],
      "name": "getWinners",
      "outputs": [
        {
          "internalType": "address[]",
          "name": "",
          "type": "address[]"
        }
      ],
      "stateMutability": "view",
      "type": "function"
    },
    {
      "inputs": [],
      "name": "lotteryId",
      "outputs": [
        {
          "internalType": "uint256",
          "name": "",
          "type": "uint256"
        }
      ],
      "stateMutability": "view",
      "type": "function"
    },
    {
      "inputs": [],
      "name": "owner",
      "outputs": [
        {
          "internalType": "address",
          "name": "",
          "type": "address"
        }
      ],
      "stateMutability": "view",
      "type": "function"
    },
    {
      "inputs": [],
      "name": "pickWinner",
      "outputs": [],
      "stateMutability": "nonpayable",
      "type": "function"
    },
    {
      "inputs": [
        {
          "internalType": "uint256",
          "name": "",
          "type": "uint256"
        }
      ],
      "name": "players",
      "outputs": [
        {
          "internalType": "address payable",
          "name": "",
          "type": "address"
        }
      ],
      "stateMutability": "view",
      "type": "function"
    },
    {
      "inputs": [
        {
          "internalType": "uint256",
          "name": "",
          "type": "uint256"
        }
      ],
      "name": "winners",
      "outputs": [
        {
          "internalType": "address",
          "name": "",
          "type": "address"
        }
      ],
      "stateMutability": "view",
      "type": "function"
    }
  ],
  "bytecode": "0x6080604052348015600f57600080fd5b50336000806101000a81548173ffffffffffffffffffffffffffffffffffffffff021916908373ffffffffffffffffffffffffffffffffffffffff1602179055506000600381905550610e2d806100676000396000f3fe60806040526004361061009c5760003560e01c8063a2fb117511610064578063a2fb117514610164578063dbdff2c1146101a1578063df15c37e146101cc578063e580f47b146101f7578063e97dcb6214610222578063f71d96cb1461022c5761009c565b806312065fe0146100a15780635d495aea146100cc5780638b5b9ccc146100e35780638da5cb5b1461010e578063900aafaf14610139575b600080fd5b3480156100ad57600080fd5b506100b6610269565b6040516100c3919061084d565b60405180910390f35b3480156100d857600080fd5b506100e1610271565b005b3480156100ef57600080fd5b506100f86104bc565b6040516101059190610958565b60405180910390f35b34801561011a57600080fd5b5061012361054a565b604051610130919061099b565b60405180910390f35b34801561014557600080fd5b5061014e61056e565b60405161015b919061084d565b60405180910390f35b34801561017057600080fd5b5061018b600480360381019061018691906109e7565b610578565b604051610198919061099b565b60405180910390f35b3480156101ad57600080fd5b506101b66105b7565b6040516101c3919061084d565b60405180910390f35b3480156101d857600080fd5b506101e161060b565b6040516101ee9190610ad2565b60405180910390f35b34801561020357600080fd5b5061020c610699565b604051610219919061084d565b60405180910390f35b61022a61069f565b005b34801561023857600080fd5b50610253600480360381019061024e91906109e7565b61074e565b6040516102609190610b03565b60405180910390f35b600047905090565b60008054906101000a900473ffffffffffffffffffffffffffffffffffffffff1673ffffffffffffffffffffffffffffffffffffffff163373ffffffffffffffffffffffffffffffffffffffff16146102ff576040517f08c379a00000000000000000000000000000000000000000000000000000000081526004016102f690610b7b565b60405180910390fd5b600060018054905061030f6105b7565b6103199190610bca565b90506001818154811061032f5761032e610bfb565b5b9060005260206000200160009054906101000a900473ffffffffffffffffffffffffffffffffffffffff1673ffffffffffffffffffffffffffffffffffffffff166108fc479081150290604051600060405180830381858888f1935050505015801561039f573d6000803e3d6000fd5b506002600182815481106103b6576103b5610bfb565b5b9060005260206000200160009054906101000a900473ffffffffffffffffffffffffffffffffffffffff169080600181540180825580915050600190039060005260206000200160009091909190916101000a81548173ffffffffffffffffffffffffffffffffffffffff021916908373ffffffffffffffffffffffffffffffffffffffff1602179055506003600081548092919061045490610c59565b9190505550600067ffffffffffffffff81111561047457610473610ca1565b5b6040519080825280602002602001820160405280156104a25781602001602082028036833780820191505090505b50600190805190602001906104b892919061078d565b5050565b6060600180548060200260200160405190810160405280929190818152602001828054801561054057602002820191906000526020600020905b8160009054906101000a900473ffffffffffffffffffffffffffffffffffffffff1673ffffffffffffffffffffffffffffffffffffffff16815260200190600101908083116104f6575b5050505050905090565b60008054906101000a900473ffffffffffffffffffffffffffffffffffffffff1681565b6000600354905090565b6002818154811061058857600080fd5b906000526020600020016000915054906101000a900473ffffffffffffffffffffffffffffffffffffffff1681565b60008060009054906101000a900473ffffffffffffffffffffffffffffffffffffffff16426040516020016105ed929190610d39565b6040516020818303038152906040528051906020012060001c905090565b6060600280548060200260200160405190810160405280929190818152602001828054801561068f57602002820191906000526020600020905b8160009054906101000a900473ffffffffffffffffffffffffffffffffffffffff1673ffffffffffffffffffffffffffffffffffffffff1681526020019060010190808311610645575b5050505050905090565b60035481565b67016345785d8a000034116106e9576040517f08c379a00000000000000000000000000000000000000000000000000000000081526004016106e090610dd7565b60405180910390fd5b6001339080600181540180825580915050600190039060005260206000200160009091909190916101000a81548173ffffffffffffffffffffffffffffffffffffffff021916908373ffffffffffffffffffffffffffffffffffffffff160217905550565b6001818154811061075e57600080fd5b906000526020600020016000915054906101000a900473ffffffffffffffffffffffffffffffffffffffff1681565b828054828255906000526020600020908101928215610806579160200282015b828111156108055782518260006101000a81548173ffffffffffffffffffffffffffffffffffffffff021916908373ffffffffffffffffffffffffffffffffffffffff160217905550916020019190600101906107ad565b5b5090506108139190610817565b5090565b5b80821115610830576000816000905550600101610818565b5090565b6000819050919050565b61084781610834565b82525050565b6000602082019050610862600083018461083e565b92915050565b600081519050919050565b600082825260208201905092915050565b6000819050602082019050919050565b600073ffffffffffffffffffffffffffffffffffffffff82169050919050565b60006108bf82610894565b9050919050565b6108cf816108b4565b82525050565b60006108e183836108c6565b60208301905092915050565b6000602082019050919050565b600061090582610868565b61090f8185610873565b935061091a83610884565b8060005b8381101561094b57815161093288826108d5565b975061093d836108ed565b92505060018101905061091e565b5085935050505092915050565b6000602082019050818103600083015261097281846108fa565b905092915050565b600061098582610894565b9050919050565b6109958161097a565b82525050565b60006020820190506109b0600083018461098c565b92915050565b600080fd5b6109c481610834565b81146109cf57600080fd5b50565b6000813590506109e1816109bb565b92915050565b6000602082840312156109fd576109fc6109b6565b5b6000610a0b848285016109d2565b91505092915050565b600081519050919050565b600082825260208201905092915050565b6000819050602082019050919050565b610a498161097a565b82525050565b6000610a5b8383610a40565b60208301905092915050565b6000602082019050919050565b6000610a7f82610a14565b610a898185610a1f565b9350610a9483610a30565b8060005b83811015610ac5578151610aac8882610a4f565b9750610ab783610a67565b925050600181019050610a98565b5085935050505092915050565b60006020820190508181036000830152610aec8184610a74565b905092915050565b610afd816108b4565b82525050565b6000602082019050610b186000830184610af4565b92915050565b600082825260208201905092915050565b7f4f6e6c79206f776e65722063616e207069636b2077696e6e6e65720000000000600082015250565b6000610b65601b83610b1e565b9150610b7082610b2f565b602082019050919050565b60006020820190508181036000830152610b9481610b58565b9050919050565b7f4e487b7100000000000000000000000000000000000000000000000000000000600052601260045260246000fd5b6000610bd582610834565b9150610be083610834565b925082610bf057610bef610b9b565b5b828206905092915050565b7f4e487b7100000000000000000000000000000000000000000000000000000000600052603260045260246000fd5b7f4e487b7100000000000000000000000000000000000000000000000000000000600052601160045260246000fd5b6000610c6482610834565b91507fffffffffffffffffffffffffffffffffffffffffffffffffffffffffffffffff8203610c9657610c95610c2a565b5b600182019050919050565b7f4e487b7100000000000000000000000000000000000000000000000000000000600052604160045260246000fd5b60008160601b9050919050565b6000610ce882610cd0565b9050919050565b6000610cfa82610cdd565b9050919050565b610d12610d0d8261097a565b610cef565b82525050565b6000819050919050565b610d33610d2e82610834565b610d18565b82525050565b6000610d458285610d01565b601482019150610d558284610d22565b6020820191508190509392505050565b7f4d696e696d756d20302e3120657468657220726571756972656420746f20656e60008201527f74657220746865206c6f74746572790000000000000000000000000000000000602082015250565b6000610dc1602f83610b1e565b9150610dcc82610d65565b604082019050919050565b60006020820190508181036000830152610df081610db4565b905091905056fea264697066735822122075f6c307568fda204729ff1a3bdd8e44fe4327e6768ec74235023e4b386f574e64736f6c634300081c0033",
  "linkReferences": {},
  "deployedLinkReferences": {}
}